S00C0000455830372E7372656314
S11300000C9434000C9449000C9449000C9449005D
S11300100C9449000C9449000C9449000C94490038
S11300200C9449000C9449000C9449000C94490028
S11300300C9449000C9449000C9449000C94490018
S11300400C9449000C9449000C9449000C94490008
S11300500C9449000C9449000C9449000C944900F8
S11300600C9449000C94490011241FBECFEFD8E032
S1130070DEBFCDBF11E0A0E0B1E0E0EFF0E002C0F0
S113008005900D92A031B107D9F70E944B000C9452
S113009076000C9400000E94520080E091E00E94DF
S11300A06700FFCF1092C50087E68093C40088E103
S11300B08093C10086E08093C2000895982FE0ECFD
S11300C0F0E0808185FFFDCF9093C6000895CF9323
S11300D0DF93EC018881882331F00E945E00219631
S11300E088818823D1F7DF91CF910895F894FFCFC9
S11300F048454C4C4F204E4557204C49420D0A0070
S9030000FC
