S00C0000455830332E7372656318
S11300000C9434000C943E000C943E000C943E007E
S11300100C943E000C943E000C943E000C943E0064
S11300200C943E000C943E000C943E000C943E0054
S11300300C943E000C943E000C943E000C943E0044
S11300400C943E000C943E000C943E000C943E0034
S11300500C943E000C943E000C943E000C943E0024
S11300600C943E000C943E0011241FBECFEFD8E048
S1130070DEBFCDBF0E9440000C9467000C940000CA
S11300801F93E4E2F0E0808180628083EAE2F0E0A2
S113009080818B7F8083EBE2F0E0808184608083C9
S11300A0E9E2F0E0A5E2B0E010E268EE73E040E9D6
S11300B051E0808182FDFDCF8C9181278C939B013F
S11300C0CA010197F1F721503040D1F7F2CFF894EB
S10500D0FFCF5C
S9030000FC
