:100000000C9434000C9449000C9449000C94490061
:100010000C9449000C9449000C9449000C9449003C
:100020000C9449000C9449000C9449000C9449002C
:100030000C9449000C9449000C9449000C9449001C
:100040000C9449000C9449000C9449000C9449000C
:100050000C9449000C9449000C9449000C944900FC
:100060000C9449000C94490011241FBECFEFD8E036
:10007000DEBFCDBF11E0A0E0B1E0EEEBF1E002C0E9
:1000800005900D92AC32B107D9F70E944B000C9449
:10009000DD000C9400005F926F927F928F929F928E
:1000A000AF92BF92CF92DF92EF92FF920F931F9386
:1000B000CF93DF93E4E2F0E0808180628083EAE224
:1000C000F0E080818B7F8083EBE2F0E080818460D0
:1000D00080830E94B90080E091E00E94CE0090E011
:1000E00009E210E00F2EF8E08F2EF1E09F2EF02DA8
:1000F0000F2EF5E2EF2EFF24F02D7724689475F88B
:100100000F2EF8EECF2EF3E0DF2EF02DC0E9D1E078
:10011000662463940F2EFDE1AF2EF1E0BF2EF02D8B
:10012000552401C0952DF801808182FD11C09923CD
:1001300079F4C4010E94CE00F70180818725808375
:100140009601CE010197F1F721503040D1F7962D5D
:10015000F801808182FFE7CF913029F7C5010E9425
:10016000CE009601CE010197F1F721503040D1F732
:10017000D9CF1092C50087E68093C40088E18093B0
:10018000C10086E08093C2000895982FE0ECF0E073
:10019000808185FFFDCF9093C6000895CF93DF93B4
:1001A000EC018881882331F00E94C5002196888166
:0E01B0008823D1F7DF91CF910895F894FFCF07
:1001BE0048656C6C6F0D0A00427574746F6E20503A
:1001CE0072657373696F6E61646F0D0A00427574A8
:0C01DE00746F6E20536F6C746F0D0A007C
:00000001FF
