:100000000C9434000C9446000C9446000C9446006A
:100010000C9446000C9446000C9446000C94460048
:100020000C9446000C9446000C9446000C94AD00D1
:100030000C9446000C9446000C9446000C94460028
:100040000C9446000C9446000C9446000C94460018
:100050000C9446000C9446000C9446000C94460008
:100060000C9446000C94460011241FBECFEFD8E03C
:10007000DEBFCDBF11E0A0E0B1E001C01D92A23013
:10008000B107E1F70E9448000C94C4000C940000F2
:10009000DF92EF92FF920F931F93DF93CF9300D0E5
:1000A000CDB7DEB71A8219828FEF84B915B80E94D6
:1000B000710078948E010F5F1F4F0F2EF5E2EF2E27
:1000C000FF24F02DDD246894D5F888EE93E0B80184
:1000D0000E9485008823C9F3F70180818D258083E4
:1000E000F4CFA1E8B0E08C9188608C93EFE6F0E06B
:1000F00080818260808380E89EE390938900809372
:1001000088008C9181608C930895FC01DB01F89448
:10011000809100019091010178942D913C9111976B
:10012000A9014E1B5F0B2417350760F48417950750
:1001300090F48217930778F08E0F9F1F8D939C93F6
:1001400081E008958217930730F08E0F9F1F8D93E3
:100150009C9381E0089580E008951F920F920FB65E
:100160000F9211248F939F93809100019091010130
:10017000019690930101809300019F918F910F90C0
:0C0180000FBE0F901F901895F894FFCF51
:00000001FF
