S00C0000455830392E7372656312
S11300000C9434000C9449000C9449000C9449005D
S11300100C9449000C9449000C9449000C94490038
S11300200C9449000C9449000C9449000C94490028
S11300300C9449000C9449000C9449000C94490018
S11300400C9449000C9449000C9449000C94490008
S11300500C9449000C9449000C9449000C944900F8
S11300600C9449000C94490011241FBECFEFD8E032
S1130070DEBFCDBF11E0A0E0B1E0EAECF9E002C0E0
S113008005900D92A831B107D9F70E94A9010C94EB
S1130090E3040C94000095ED892F8A95F1F7E5E2CD
S11300A0F0E0808182608083892F8A95F1F78081D6
S11300B08D7F80839A95F1F70895FF920F931F9394
S11300C0F62E8170E5E2F0E090819E7F982B90837C
S11300D080E49FE10197F1F7462F50E0CA01929521
S11300E082958F7089279F7089278170EBE2F0E0F9
S11300F08295807F20812F7E282B2083CA019695AC
S11301008795929582958F7089279F708927817032
S11301108295880F807E20812F7D282B20830024C8
S1130120440F551F001C440F551F001C452F502D14
S113013041704295440F440F407C80818F7B842B17
S113014080836623962F991F9927991F0BE210E04D
S113015097959927979580818F77892B80830E9423
S11301604B00FF0CFF0CFF0CFF0C4F2D50E0CA019D
S1130170929582958F7089279F70892781708295C7
S1130180807FF80120812F7E282B2083CA01969539
S11301908795929582958F7089279F7089278170A2
S11301A08295880F807E20812F7D282B2083002438
S11301B0440F551F001C440F551F001C452F502D84
S11301C041704295440F440F407C80818F7B842B87
S11301D08083FF20FF1CFF24FF1CF794FF24F79467
S11301E080818F778F2980830E944B001F910F910C
S11301F0FF900895682F80E00E945D000895EF92BB
S1130200FF920F931F93AAE2B0E08C9180618C93CC
S1130210EBE2F0E080818F7E80838C9180628C930E
S113022080818F7D80838C9180648C9380818F7B8F
S113023080838C9180688C9380818F778083A4E203
S1130240B0E08C9182608C93E5E2F0E080818E7F57
S113025080838C9181608C9380818E7F808328EE53
S113026033E040E951E0CA010197F1F721503040F1
S1130270D1F70BE210E0F8018081806180838081F6
S1130280806280830E944B000E944B000E944B00BE
S11302900F2EF0EAEF2EFFE0FF2EF02DC70101979D
S11302A0F1F7F80180818F7E808380818062808372
S11302B00E944B000E944B000E944B00C701019713
S11302C0F1F788E20E94FA008CE00E94FA0086E0CE
S11302D00E94FA0081E00E94FA0028EE33E040E92F
S11302E051E0CA010197F1F721503040D1F71F9135
S11302F00F91FF90EF900895CF93DF93EC01688105
S1130300662339F081E00E945D00219668816623AE
S1130310C9F7DF91CF910895CF93DF93982FEA0126
S1130320E5E2F0E080818E7F8083913019F0923095
S113033051F405C0615880E00E945D0004C061541E
S113034080E00E945D00CE010E947C01DF91CF918C
S113035008958F929F92AF92BF92CF92DF92EF92C5
S1130360FF920F931F93DF93CF93CDB7DEB72A97F6
S11303700FB6F894DEBF0FBECDBF0E94FF0081E030
S11303800E94FA008CE00E94FA0081E061E040E003
S113039051E00E948C0182E061E04DE051E00E9456
S11303A08C01EE24FF246E010894C11CD11C0F2E75
S11303B0F4E1AF2EF1E0BF2EF02D0F2EF0ED8F2ED5
S11303C0F7E09F2EF02D00E911E00894E11CF11CE8
S11303D000D000D000D0EDB7FEB73196D182C082F4
S11303E0B382A282F582E4820E940B028DB79EB78B
S11303F006960FB6F8949EBF0FBE8DBF82E067E0ED
S1130400A6010E948C019401C8010197F1F72150C3
S11304103040D1F7DACFAEE0B0E0E1E1F2E00C94A5
S1130420BA040D891E8986E08C831A8309838FEFB1
S11304309FE79E838D839E01275E3F4FCE010196E9
S11304406F89788DA9010E942F022F813885020FB0
S1130450131FF80110822E96E4E00C94D604ABE04E
S1130460B0E0E5E3F2E00C94AC043C012B015A014A
S1130470FC0117821682838181FD03C06FEF7FEF39
S1130480C6C19AE0892E1E010894211C311CF30177
S11304902381F20123FD859123FF81912F0188237C
S11304A009F4B2C1853239F423FD859123FF81918A
S11304B02F01853229F490E0B3010E942204E7CF92
S11304C0982FFF24EE249924FFE1FF15D0F09B32EE
S11304D069F09C3228F4903259F0933291F40EC0B2
S11304E09D3249F0903369F441E024C052E0F52A8A
S11304F084E0F82A28C098E0F92A25C0E0E1FE2A21
S113050022C0F7FC29C0892F80538A3070F4F6FE8C
S113051005C0989C902C1124980E15C0E89CE02CE2
S11305201124E80EF0E2FF2A0EC09E3229F4F6FCF4
S11305306BC140E4F42A07C09C3619F450E8F52A4C
S113054002C0983649F4F20123FD959123FF91915D
S11305502F01992309F0B8CF892F8554833018F0DF
S11305608052833038F444E050E0A40EB51E5FE3BB
S113057059830FC0933631F0933779F0933509F0EE
S113058056C020C0F5018081898342E050E0A40E6A
S1130590B51E610101E010E012C0F501C080D180F8
S11305A0F6FC03C06FEF7FEF02C0692D70E042E0FC
S11305B050E0A40EB51EC6010E9417048C015FE72B
S11305C0F52214C0F501C080D180F6FC03C06FEFA2
S11305D07FEF02C0692D70E042E050E0A40EB51E2A
S11305E0C6010E940C048C0150E8F52AF3FE07C0F2
S11305F01AC080E290E0B3010E942204EA948E2D96
S113060090E008171907A8F30EC0F601F7FC8591CE
S1130610F7FE81916F0190E0B3010E942204E11082
S1130620EA94015010400115110579F7EAC0943697
S113063011F0993669F5F7FE08C0F5012081318182
S11306404281538184E090E00AC0F5018081918168
S11306509C01442737FD4095542F82E090E0A80E7A
S1130660B91E9FE6F92257FF09C050954095309571
S113067021953F4F4F4F5F4FE0E8FE2ACA01B90171
S1130680A1012AE030E00E944E04D82ED21840C0C6
S1130690953729F41F2D1F7E2AE030E01DC01F2D41
S11306A0197F9F3661F0903720F4983509F0ACC07B
S11306B00FC0903739F0983709F0A6C004C028E07D
S11306C030E00AC0106114FD146020E130E004C081
S11306D014FD166020E132E017FF08C0F5016081C7
S11306E071818281938144E050E008C0F5018081EA
S11306F09181BC0180E090E042E050E0A40EB51E80
S1130700A1010E944E04D82ED2188FE7F82EF122B0
S1130710F6FE0BC05EEFF522D91438F4F4FE07C0E0
S1130720F2FC05C08FEEF82202C01D2D01C0192D68
S1130730F4FE0DC0FE01ED0DF11D8081803319F42E
S113074099EEF92208C01F5FF2FE05C003C08F2D89
S1130750867809F01F5F0F2DF3FC14C0F0FE0FC064
S11307601E1510F09D2C0BC09D2C9E0C911A1E2D55
S113077006C080E290E0B3010E9422041F5F1E15B0
S1130780C0F304C01E1510F4E11A01C0EE2404FFE6
S11307900FC080E390E0B3010E94220402FF1DC059
S11307A001FD03C088E790E00EC088E590E00BC02F
S11307B0802F867891F001FF02C08BE201C080E2B5
S11307C0F7FC8DE290E0B3010E94220406C080E3AE
S11307D090E0B3010E9422049A94D914C0F3DA94ED
S11307E0F101ED0DF11D808190E0B3010E9422041E
S11307F0DD20A9F706C080E290E0B3010E94220444
S1130800EA94EE20C1F743CEF30166817781CB01F0
S11308102B96E2E10C94C804FC01059061507040F1
S11308200110D8F7809590958E0F9F1F0895FC01B5
S11308306150704001900110D8F7809590958E0F0B
S11308409F1F08950F931F93CF93DF938C01EB01A8
S11308508B8181FF1BC082FF0DC02E813F818C8163
S11308609D812817390764F4E881F9810193F9839C
S1130870E88306C0E885F985802F0995892B31F432
S11308808E819F8101969F838E8302C00FEF1FEF9D
S1130890C801DF91CF911F910F910895FA01AA2702
S11308A0283051F1203181F1E8946F936E7F6E5FAF
S11308B07F4F8F4F9F4FAF4FB1E03ED0B4E03CD05D
S11308C0670F781F891F9A1FA11D680F791F8A1F40
S11308D0911DA11D6A0F711D811D911DA11D20D0A7
S11308E009F468943F912AE0269F11243019305D61
S11308F03193DEF6CF010895462F4770405D419352
S1130900B3E00FD0C9F7F6CF462F4F70405D4A339E
S113091018F0495D31FD4052419302D0A9F7EACF66
S1130920B4E0A6959795879577956795BA95C9F795
S113093000976105710508959B01AC010A2E069488
S11309405795479537952795BA95C9F7620F731F41
S1130950841F951FA01D08952F923F924F925F927E
S11309606F927F928F929F92AF92BF92CF92DF92BB
S1130970EF92FF920F931F93CF93DF93CDB7DEB720
S1130980CA1BDB0B0FB6F894DEBF0FBECDBF0994B4
S11309902A88398848885F846E847D848C849B840B
S11309A0AA84B984C884DF80EE80FD800C811B8119
S11309B0AA81B981CE0FD11D0FB6F894DEBF0FBE48
S10D09C0CDBFED010895F894FFCFB8
S11309CA446973706C6179203136783200436F75EB
S10B09DA6E743A00256420004C
S9030000FC
