:100000000C9434000C9451000C9451000C94510049
:100010000C9451000C9451000C9451000C9451001C
:100020000C9451000C9451000C9451000C9451000C
:100030000C9451000C9451000C9451000C945100FC
:100040000C9451000C9451000C94CE010C9451006E
:100050000C9451000C9451000C9451000C945100DC
:100060000C9451000C94510011241FBECFEFD8E026
:10007000DEBFCDBF11E0A0E0B1E0EEECF6E002C0E3
:1000800005900D92AC35B107D9F711E0ACE5B1E0C0
:1000900001C01D92A33CB107E1F70E9411020C942C
:1000A00065030C94000080E480937C0087E88093D3
:1000B0007A000895ECE7F0E090818770987F892BB3
:1000C0008083EAE7F0E0808180648083808186FD20
:1000D000FDCF2091780030917900822F932F0895E1
:1000E00095ED892F8A95F1F7E5E2F0E08081826055
:1000F0008083892F8A95F1F780818D7F80839A95FF
:10010000F1F70895FF920F931F93F62E8170E5E2A9
:10011000F0E090819E7F982B908380E49FE101978F
:10012000F1F7462F50E0CA01929582958F7089278A
:100130009F7089278170EBE2F0E08295807F2081BB
:100140002F7E282B2083CA019695879592958295BC
:100150008F7089279F70892781708295880F807E94
:1001600020812F7D282B20830024440F551F001C45
:10017000440F551F001C452F502D41704295440FD0
:10018000440F407C80818F7B842B80836623962F55
:10019000991F9927991F0BE210E09795992797953A
:1001A00080818F77892B80830E947000FF0CFF0C69
:1001B000FF0CFF0C4F2D50E0CA01929582958F7075
:1001C00089279F70892781708295807FF80120811F
:1001D0002F7E282B2083CA0196958795929582952C
:1001E0008F7089279F70892781708295880F807E04
:1001F00020812F7D282B20830024440F551F001CB5
:10020000440F551F001C452F502D41704295440F3F
:10021000440F407C80818F7B842B8083FF20FF1CD8
:10022000FF24FF1CF794FF24F79480818F778F2998
:1002300080830E9470001F910F91FF900895682F96
:1002400080E00E9482000895EF92FF920F931F9327
:10025000AAE2B0E08C9180618C93EBE2F0E08081C7
:100260008F7E80838C9180628C9380818F7D808350
:100270008C9180648C9380818F7B80838C9180684B
:100280008C9380818F778083A4E2B0E08C91826030
:100290008C93E5E2F0E080818E7F80838C91816099
:1002A0008C9380818E7F808328EE33E040E951E09B
:1002B000CA010197F1F721503040D1F70BE210E06D
:1002C000F8018081806180838081806280830E94C8
:1002D00070000E9470000E9470000F2EF0EAEF2E56
:1002E000FFE0FF2EF02DC7010197F1F7F8018081A3
:1002F0008F7E80838081806280830E9470000E9454
:1003000070000E947000C7010197F1F788E20E9417
:100310001F018CE00E941F0186E00E941F0181E006
:100320000E941F0128EE33E040E951E0CA01019725
:10033000F1F721503040D1F71F910F91FF90EF90CE
:100340000895CF93DF93EC016881662339F081E053
:100350000E948200219668816623C9F7DF91CF91C0
:100360000895CF93DF93982FEA01E5E2F0E08081D2
:100370008E7F8083913019F0923051F405C061581E
:1003800080E00E94820004C0615480E00E948200EC
:10039000CE010E94A101DF91CF9108951F920F928B
:1003A0000FB60F9211242F938F939F93EF93FF9388
:1003B0002091C6008091C0008C7149F580915C014C
:1003C00090915D018436910520F010925D011092AC
:1003D0005C012A3079F4E0915C01F0915D01E15A11
:1003E000FE4F108281E080935E0110925D011092B9
:1003F0005C010DC080915C0190915D01FC01E15AAE
:10040000FE4F2083019690935D0180935C01FF91E4
:10041000EF919F918F912F910F900FBE0F901F9092
:1004200018952F923F924F925F926F927F928F9288
:100430009F92AF92BF92CF92DF92EF92FF920F9373
:100440001F93DF93CF93CDB7DEB72A970FB6F894FB
:10045000DEBF0FBECDBFE4E2F0E08081806280832A
:10046000EAE2F0E080818B7F8083EBE2F0E0808144
:10047000846080830E94E70280E091E00E94FC0299
:1004800078940E940B030E9453000E94240181E093
:100490000E941F018CE00E941F0181E061E048E0A2
:1004A00051E00E94B101FF240F2EFFE5AF2EF1E0D5
:1004B000BF2EF02D0F2EF5E16F2EF1E07F2EF02DE7
:1004C0000F2EF5E24F2EF1E05F2EF02D4E01089435
:1004D000811C911C0F2EF9E2CF2EDD24F02D0F2E62
:1004E000F5E22F2E3324F02DEE246894E5F800E990
:1004F00011E001C0FF24F89480915E018823C9F1C6
:10050000C501B3010E941103282F392F232B99F025
:1005100080E00E945A00B4014AE050E00E942B03A0
:100520008BE191E00E94FC02C4010E94FC0281E286
:1005300091E00E94FC02C501B2010E9411030097E4
:10054000B1F0FC013596DF010D900020E9F711971D
:10055000AE1BBF0BA80FB91F14961C9281E061E07F
:10056000AF010E94B1018BE291E00E94FC02109267
:100570005E017894F601808182FD14C0FF2091F421
:1005800086E391E00E94FC02F10180818E25808348
:1005900028EE33E0C8010197F1F721503040D1F740
:1005A000FF24F394F601808182FFA5CFF1E0FF16CE
:1005B00009F0A1CF8CE491E00E94FC0228EE33E028
:1005C000C8010197F1F721503040D1F793CF109235
:1005D000C50087E68093C40088E18093C10086E06F
:1005E0008093C2000895982FE0ECF0E0808185FFB1
:1005F000FDCF9093C6000895CF93DF93EC018881DF
:10060000882331F00E94F302219688818823D1F754
:10061000DF91CF910895E1ECF0E0808180688083E4
:100620000895FB0151915523A9F0BF01DC014D91C3
:1006300045174111E1F759F4CD010190002049F02F
:100640004D9140154111C9F3FB014111EFCF81E0FC
:1006500090E001970895FB019F01423074F045320C
:1006600064F4642F77270E945103805D8A330CF075
:10067000895D8193CB010097A1F71082C9010C9489
:100680004103DC01FC01672F71917723E1F7329779
:1006900004C07C916D9370836291AE17BF07C8F35D
:1006A0000895AA1BBB1B51E107C0AA1FBB1FA617B9
:1006B000B70710F0A61BB70B881F991F5A95A9F70B
:0E06C00080959095BC01CD010895F894FFCF70
:1006CE0048656C6C6F0D0A00446973706C6179201B
:1006DE0031367832005B414E305D005B414E303A30
:1006EE00005D0D0A005B4C43443A005B4C43443AB8
:1006FE004F4B5D0D0A00427574746F6E205072651B
:10070E007373696F6E61646F2E0D0A004275747497
:0C071E006F6E20536F6C746F2E0D0A007C
:00000001FF
