:100000000C9434000C9451000C9451000C94510049
:100010000C9451000C9451000C9451000C9451001C
:100020000C9451000C9451000C9451000C9451000C
:100030000C9451000C9451000C9451000C945100FC
:100040000C9451000C9451000C9453000C945100EA
:100050000C9451000C9451000C9451000C945100DC
:100060000C9451000C94510011241FBECFEFD8E026
:10007000DEBFCDBF11E0A0E0B1E0ECE8F2E002C0ED
:1000800005900D92AE32B107D9F711E0AEE2B1E0C2
:1000900001C01D92A539B107E1F70E9496000C94AA
:1000A00044010C9400001F920F920FB60F9211247E
:1000B0002F938F939F93EF93FF932091C60080918E
:1000C000C0008C7149F580912E0190912F018436EA
:1000D000910520F010922F0110922E012A3079F410
:1000E000E0912E01F0912F01EF5CFE4F108281E034
:1000F0008093300110922F0110922E010DC080913B
:100100002E0190912F01FC01EF5CFE4F20830196A0
:1001100090932F0180932E01FF91EF919F918F91EA
:100120002F910F900FBE0F901F9018953F924F92F6
:100130005F926F927F928F929F92AF92BF92CF9277
:10014000DF92EF92FF920F931F93CF93DF93E4E23E
:10015000F0E0808180628083EAE2F0E080818B7F42
:100160008083EBE2F0E08081846080830E941A014A
:1001700080E091E00E942F0178940E943E0110E0FF
:100180000F2EF1E3CF2EF1E0DF2EF02D0F2EF9E24E
:10019000EF2EFF24F02D0F2EF8E06F2EF1E07F2ED2
:1001A000F02D0F2EF5E2AF2EBB24F02D00E20F2E26
:1001B000F8EE8F2EF3E09F2EF02DC0E9D1E033242E
:1001C00033940F2EFEE14F2EF1E05F2EF02D01C093
:1001D00010E0F89480913001882329F0C6010E9434
:1001E0002F01109230017894F701808182FD11C0B7
:1001F000112379F4C3010E942F01F501808180272A
:1002000080839401CE010197F1F721503040D1F75E
:10021000132DF701808182FFDCCF1130D1F6C201AE
:100220000E942F019401CE010197F1F72150304037
:10023000D1F7CECF1092C50087E68093C40088E145
:100240008093C10086E08093C2000895982FE0EC6F
:10025000F0E0808185FFFDCF9093C6000895CF9395
:10026000DF93EC018881882331F00E9426012196DA
:1002700088818823D1F7DF91CF910895E1ECF0E0F8
:0C0280008081806880830895F894FFCF8F
:10028C0048656C6C6F0D0A00427574746F6E20506B
:10029C0072657373696F6E61646F2E0D0A0042751F
:0E02AC0074746F6E20536F6C746F2E0D0A0009
:00000001FF
