:100000000C9434000C943E000C943E000C943E0082
:100010000C943E000C943E000C943E000C943E0068
:100020000C943E000C943E000C943E000C943E0058
:100030000C943E000C943E000C943E000C943E0048
:100040000C943E000C943E000C943E000C943E0038
:100050000C943E000C943E000C943E000C943E0028
:100060000C943E000C943E0011241FBECFEFD8E04C
:10007000DEBFCDBF0E9440000C947D000C940000B8
:10008000FF920F931F93E4E2F0E08081806280830F
:10009000EAE2F0E080818B7F8083EBE2F0E0808118
:1000A0008460808390E0E9E2F0E0A5E2B0E010E255
:1000B00068EE73E040E951E001E0FF2401C09F2DAC
:1000C000808182FD0DC0992359F48C9181278C93F6
:1000D0009B01CA010197F1F721503040D1F7902FD1
:1000E000808182FFEDCF913059F79B01CA010197C2
:0E00F000F1F721503040D1F7E2CFF894FFCF66
:00000001FF
