S00C0000455830382E7372656313
S11300000C9434000C9451000C9451000C94510045
S11300100C9451000C9451000C9451000C94510018
S11300200C9451000C9451000C9451000C94510008
S11300300C9451000C9451000C9451000C945100F8
S11300400C9451000C9451000C9470000C945100C9
S11300500C9451000C9451000C9451000C945100D8
S11300600C9451000C94510011241FBECFEFD8E022
S1130070DEBFCDBF11E0A0E0B1E0E0ECF3E002C0F0
S113008005900D92AE33B107D9F711E0AEE3B1E0BC
S113009001C01D92A53AB107E1F70E94B3000C9488
S11300A0DE010C94000080E480937C0087E8809358
S11300B07A000895ECE7F0E090818770987F892BAF
S11300C08083EAE7F0E0808180648083808186FD1C
S11300D0FDCF2091780030917900822F932F0895DD
S11300E01F920F920FB60F9211242F938F939F9309
S11300F0EF93FF932091C6008091C0008C7149F565
S113010080913E0190913F018436910520F0109238
S11301103F0110923E012A3079F4E0913E01F091C2
S11301203F01EF5BFE4F108281E08093400110920B
S11301303F0110923E010DC080913E0190913F011C
S1130140FC01EF5BFE4F2083019690933F01809367
S11301503E01FF91EF919F918F912F910F900FBED0
S11301600F901F9018952F923F924F925F926F922B
S11301707F928F929F92AF92BF92CF92DF92EF9233
S1130180FF920F931F93DF93CF93CDB7DEB72A97D8
S11301900FB6F894DEBF0FBECDBFE4E2F0E080817D
S11301A080628083EAE2F0E080818B7F8083EBE2EF
S11301B0F0E08081846080830E94600180E091E0AF
S11301C00E94750178940E9484010E945300FF24C8
S11301D00F2EF1E4AF2EF1E0BF2EF02D0F2EF8E03C
S11301E06F2EF1E07F2EF02D4E010894811C911C9E
S11301F00F2EF9E2CF2EDD24F02D0F2EF5E24F2E37
S11302005524F02DEE246894E5F80F2EF8EE2F2EE9
S1130210F3E03F2EF02D00E911E001C0FF24F89433
S113022080914001882301F1C5010E947501C50137
S1130230B3010E948A01282F392F232B99F080E0E3
S11302400E945A00B4014AE050E00E94A4018EE0EA
S113025091E00E947501C4010E94750184E191E05E
S11302600E947501109240017894F601808182FD0C
S113027013C0FF2089F488E191E00E947501F20126
S113028080818E2580839101C8010197F1F7215067
S11302903040D1F7FF24F394F601808182FFBFCF71
S11302A0F1E0FF1609F0BBCF8EE291E00E947501E8
S11302B09101C8010197F1F721503040D1F7AECF39
S11302C01092C50087E68093C40088E18093C10042
S11302D086E08093C2000895982FE0ECF0E08081DE
S11302E085FFFDCF9093C6000895CF93DF93EC0173
S11302F08881882331F00E946C01219688818823AB
S1130300D1F7DF91CF910895E1ECF0E0808180682E
S113031080830895FB0151915523A9F0BF01DC01AD
S11303204D9145174111E1F759F4CD010190002099
S113033049F04D9140154111C9F3FB014111EFCF33
S113034081E090E001970895FB019F01423074F031
S1130350453264F4642F77270E94CA01805D8A3392
S11303600CF0895D8193CB010097A1F71082C9013C
S11303700C94BA01DC01FC01672F71917723E1F73A
S1130380329704C07C916D9370836291AE17BF075E
S1130390C8F30895AA1BBB1B51E107C0AA1FBB1FCA
S11303A0A617B70710F0A61BB70B881F991F5A95FD
S11303B0A9F780959095BC01CD010895F894FFCFDD
S11303C048656C6C6F0D0A005B414E305D005B410B
S11303D04E303A005D0D0A00427574746F6E205001
S11303E072657373696F6E61646F2E0D0A004275D6
S11103F074746F6E20536F6C746F2E0D0A00C0
S9030000FC
